:020000040000FA
:04000000FEEFFFF020
:10FC740000FA1801F218014218010000004E1601A2
:10FC8400000000000000000000000000000000026E
:10FC9400400001000240000000669EE0FFBEF7FF46
:10FCA400FFF6F61DEC1A4708FBFBDD1004B1D51670
:10FCB40044EF07DFFF12741274D96A7D8618C68573
:10FCC400A2BDFF4A2C2CF50EFC228A5C4371BC00B9
:10FCD400F810801CB71BDD19FE27CCD7FE7AFF92E3
:10FCE400DB7DAFD39F55EF9ADB20FA20FD646C00D7
:10FCF40084BCFF1000F5FE36FF3CFFFFF7CE18B0C2
:10FD0400C0994ED3075D7B8E3D9B93BABA1900759B
:10FD14006600801FF89CFF6636E007FCFF3BB65385
:10FD24007453747F8695250FFDB8FD9AD672979A01
:10FD3400D6DAFFFFE710F4DCAED9FFE07F9EFF3F89
:10FD4400E731F7FEFF1048EBCA56FBFEF71084E5D7
:10FD5400AF0004108424DDA0FEDFFFFBDE1FF844A7
:10FD640024DEFF04B19F1C4D6B4D6BFF05B2F81AE6
:10FD7400907A06692A692AF149F18DAFEC008899D5
:10FD84009960FC45531188ADBD55AD200355AD2197
:10FD9400BC51041100FF07A7D8DBFFBD64EAFB4395
:10FDA400D3E07FF45CD0DD45A15C891F0059FF00DE
:10FDB4000038FFBBF7FFF7FA7FFF075AFFDFF705AD
:10FDC4005F5F00000000000000FA000000E000E0B7
:10FDD4000028FE28FE282454FE5448C4C810264691
:10FDE4006C926A040A0010E0C000003844820000EB
:10FDF400824438005438FE385410107C101000002F
:10FE04000E0C00101010101000000606000408105C
:10FE140020407C8A92A27C0042FE02004E92929282
:10FE240062848292B2CC182848FE08E4A2A2A29C62
:10FE34003C5292928C82848890E06C9292926C6292
:10FE440092929478000028000000022C0000001018
:10FE54002844822828282828008244281040809A90
:10FE640090607C82BA9A723E4888483EFE92929292
:10FE74006C7C82828244FE8282827CFE9292928296
:10FE8400FE909090807C82828ACEFE101010FE003C
:10FE940082FE8200040282FC80FE10284482FE025C
:10FEA400020202FE403840FEFE201008FE7C8282E0
:10FEB400827CFE909090607C828A847AFE909894F2
:10FEC40062649292924CC080FE80C0FC020202FCEA
:10FED400F8040204F8FC021C02FCC6281028C6C060
:10FEE400201E20C0869A92B2C200FE8282824020E6
:10FEF40010080400828282FE204080402002020218
:10FF0400020200C0E01000042A2A1C02FE1422226D
:10FF14001C1C222222141C222214FE1C2A2A2A1807
:10FF240000107E9040304A4A523CFE1020201E00B1
:10FF340022BE0200040202BC00FE08142200008259
:10FF4400FE02003E201E201E3E1020201E1C2222E7
:10FF5400221C3E18242418182424183E3E10202065
:10FF640010122A2A2A242020FC22243C0202043EC5
:10FF740038040204383C020C023C221408142232D5
:10FF84000A0A0A3C22262A322200106C820000004F
:10FF9400FE000000826C10004080402040FF07E01B
:10FFA400FFFF0380FFFF0100FFFF0100FEFF0000D1
:10FFB400FCFF0808F87F1818F83F3C3CF03F3E3E31
:10FFC400F01F1E1EF00F1F1FF08F0F0FF18F8F8F6A
:10FFD400F1CFC7C7F3CFC3C3F7FFC383FFFFC1810B
:10FFE400FFFF8001FFFF0000FE7F0000FE7F000096
:0BFFF400FEFF0180FFFF07E0FF080098
:020000040001F9
:10000000076E61000CF4D9F4610010F4DAF46100B9
:100010001CF4DFF420EE0DF00350D9260450DA2250
:10002000010EDF6E610004F4D9F4610008F4DAF423
:1000300010EE04F00350E1260450E222DEC4E6F4A0
:10004000DEC4E6F4DEC4E6F4DEC4E6F40FEF81F0CD
:10005000610004F4D9F4610008F4DAF410EE04F05D
:100060000350E1260450E222040EDBC4E3F4E80668
:10007000FCE220EE01F00350D9260450DA22320EC1
:10008000DE6E150EDE6E010EDE6E38EF81F0610061
:1000900004F4D9F4610008F4DAF410EE04F003502B
:1000A000E1260450E222050EDBC4E3F4E806FCE29C
:1000B00020EE01F00350D9260450DA223A0EDE6E0B
:1000C000140EDE6E010EDE6E38EF81F0610004F476
:1000D000D9F4610008F4DAF410EE04F00350E126DC
:1000E0000450E222050EDBC4E3F4E806FCE220EE55
:1000F00001F00350D9260450DA22DE0EDE6E130E14
:10010000DE6E010EDE6E38EF81F0610004F4D9F48A
:10011000610008F4DAF410EE04F00350E126045014
:10012000E222060EDBC4E3F4E806FCE220EE01F076
:100130000350D9260450DA22E40EDE6E110EDE6E74
:10014000010EDE6E38EF81F0610004F4D9F4610035
:1001500008F4DAF410EE04F00350E1260450E22231
:10016000060EDBC4E3F4E806FCE220EE01F00350E7
:10017000D9260450DA22780EDE6E110EDE6E010EE4
:10018000DE6E38EF81F0610004F4D9F4610008F408
:10019000DAF410EE04F00350E1260450E222070ED8
:1001A000DBC4E3F4E806FCE220EE01F00350D926BC
:1001B0000450DA22960EDE6E100EDE6E010EDE6E3A
:1001C00038EF81F0610004F4D9F4610008F4DAF446
:1001D00010EE04F00350E1260450E222080EDBC4C6
:1001E000E3F4E806FCE220EE01F00350D9260450C7
:1001F000DA22120EDE6E100EDE6E010EDE6E38EFAB
:1002000081F020EE01F00350D9260450DA228C0E42
:10021000DE6E160EDE6E010EDE6E38EF81F00750D8
:10022000056E066A0650000AD8B419EF81F001EF96
:1002300081F00550000AD8B428EF80F0010AD8B444
:1002400047EF80F0030AD8B466EF80F0010AD8B413
:1002500085EF80F0060AD8B4A4EF80F0030AD8B482
:10026000C3EF80F0010AD8B4E2EF80F001EF81F033
:100270001200236E000E256E000E246E000E206EFE
:10028000000E1F6E010E196448EF81F04AEF81F0F5
:100290004FEF81F019C51DF51E6A53EF81F0000E76
:1002A0001E6E010E1D6E1DC519F51928216E000E5A
:1002B000226E000E256E000E206E000E1F6E0AEFDD
:1002C00082F02250016E026A01BE0206000E046E28
:1002D000020E036EE6EC8BF0010E0126000E0222E8
:1002E00001501F2602502022222A20BE7AEF81F0E0
:1002F0007CEF81F00AEF82F0E9EF81F025C524F56B
:10030000DBEF81F025501824146E1AC515F51BC5B6
:1003100016F524502324E4EC8AF02550185C146E62
:100320001AC515F51BC516F524502324E4EC8AF0F4
:1003300025501824146E1AC515F51BC516F5245042
:10034000235CE4EC8AF02550185C146E1AC515F590
:100350001BC516F52450235CE4EC8AF024501824C5
:10036000146E1AC515F51BC516F525502324E4ECAB
:100370008AF02450185C146E1AC515F51BC516F5C5
:1003800025502324E4EC8AF024501824146E1AC556
:1003900015F51BC516F52550235CE4EC8AF02450B6
:1003A000185C146E1AC515F51BC516F52550235C8F
:1003B000E4EC8AF0242A2450800A1C6E2150800A22
:1003C0001C5CD8A0E6EF81F0E8EF81F082EF81F0CD
:1003D000252A2550800A1C6E2250800A1C5CD8A059
:1003E000F4EF81F0F6EF81F07EEF81F02150016EA5
:1003F000026A01BE0206FF0E046EFE0E036EE6ECFC
:100400008BF0010E0126000E022201501F26025021
:10041000202221062150800A1C6E2250800A1C5C7A
:10042000D8B015EF82F017EF82F061EF81F0120083
:10043000206ED8901A301926BDEF82F019C521F52B
:10044000000E226E000E1F6E000E1E6EAFEF82F0C9
:1004500022501824146E1BC515F51CC516F5215025
:100460002024E4EC8AF02250185C146E1BC515F5AC
:100470001CC516F521502024E4EC8AF022501824E3
:10048000146E1BC515F51CC516F52150205CE4EC57
:100490008AF02250185C146E1BC515F51CC516F5A4
:1004A0002150205CE4EC8AF021501824146E1BC506
:1004B00015F51CC516F522502024E4EC8AF02150D5
:1004C000185C146E1BC515F51CC516F522502024AA
:1004D000E4EC8AF021501824146E1BC515F51CC5D8
:1004E00016F52250205CE4EC8AF02150185C146E62
:1004F0001BC515F51CC516F52250205CE4EC8AF0EE
:100500002250016E026A01BE0206000E046E020E47
:10051000036EE6EC8BF0010E0126000E0222015064
:100520001E2602501F22222A1FBE99EF82F09BEF47
:1005300082F0AFEF82F02150016E026A01BE020626
:10054000FF0E046EFE0E036EE6EC8BF0010E01262C
:10055000000E022201501E2602501F2221062150A9
:10056000800A1D6E2250800A1D5CD8B0BAEF82F05E
:10057000BCEF82F028EF82F019061A061A28D8A4D8
:10058000C4EF82F0C6EF82F01EEF82F012002B6EF5
:10059000200E376E2450D8B4D0EF82F0D2EF82F024
:1005A000D7EF82F024C530F5316ADBEF82F0000E20
:1005B000316E010E306E30C524F52550D8B4E3EF0E
:1005C00082F0E5EF82F0EAEF82F025C532F5336A7A
:1005D000EEEF82F0000E336E010E326E32C525F55D
:1005E000000E366E51EF83F0610098F4F6F461006E
:1005F0009CF4F7F4000EF86E09006100D4F32CF5BA
:1006000009006100D4F32DF509006100D4F32EF543
:100610000A006100D4F32FF5040E2626000E2722CF
:1006200036502502F3502124346E000E386E3750B8
:10063000D8A41DEF83F01FEF83F021EF83F050EF7C
:1006400083F02CB026EF83F028EF83F041EF83F0A6
:100650003850375C2402F3502B24356E34C514F522
:1006600035502424296E2904156E345025242A6E11
:100670002A04166E22C517F523C518F5355077ECF8
:1006800087F0D8902F322E322D322C32382A375024
:10069000385CD8A04EEF83F050EF83F021EF83F069
:1006A000362A2850365CD8A058EF83F05AEF83F0F2
:1006B000F4EF82F01200336E010E296462EF83F0D2
:1006C00064EF83F069EF83F029C531F5326A6DEF8D
:1006D00083F0000E326E010E316E31C529F53350B4
:1006E000275C346E2650285C356E3450355C366E8F
:1006F00026C538F533C537F5C9EF83F03750800A82
:10070000200FD8B086EF83F088EF83F0B9EF83F045
:100710003850800A200FD8B090EF83F092EF83F02A
:10072000B9EF83F0020E296098EF83F09AEF83F01F
:10073000A5EF83F038C514F52AC515F52BC516F5B8
:100740003750E4EC8AF0B9EF83F038C518F529C5C5
:1007500001F5026A000E046E020E036EB4EC85F021
:100760000150196E2AC51AF52BC51BF5375039EC07
:1007700081F036BEBEEF83F0C0EF83F0C5EF83F0AB
:100780003828386E3450365C366E36503524366E26
:10079000372A27502C6E2D6A37C52EF52F6A2EBEAC
:1007A0002F062C502E5C2F50800A306E2D50800A60
:1007B0003058D8A0DEEF83F0E0EF83F07EEF83F0D7
:1007C00012000B6E780EF66EFC0EF76E000EF86ED1
:1007D00002D8F8EF83F00500FA6E0900F550FD6EBF
:1007E0000900F550FE6E0900F550FF6EFA50120038
:1007F0000009D8A4FEEF83F000EF84F002EF84F04C
:100800005CEF84F0C198BF907B0EF66EFC0EF76E25
:10081000000EF86E02D81BEF84F00500FA6E090096
:10082000F550FD6E0900F550FE6E0900F550FF6EA3
:10083000FA500B5012000A50D8B421EF84F023EF85
:1008400084F042EF84F0BF8008C502F509C503F5C6
:100850000AC504F5056A810EF66EFC0EF76E000EF1
:10086000F86E02D841EF84F00500FA6E0900F550E9
:10087000FD6E0900F550FE6E0900F550FF6EFA504E
:100880001200BF90C188750EF66EFC0EF76E000E5A
:10089000F86E02D859EF84F00500FA6E0900F550A1
:1008A000FD6E0900F550FE6E0900F550FF6EFA501E
:1008B00012000B5072EC8AF012002E6E600E276E42
:1008C000FF0E286E2450050D6100CCF329F5610060
:1008D000D0F32AF52750292628502A22C60E29248B
:1008E0002B6EFD0E2A202C6E000E306E000E2F6E29
:1008F000C5EF84F06100ACF4F6F46100B0F4F7F4F5
:10090000000EF86E08006100D4F32DF52B4A2C2A56
:100910002350080D6100CCF331F56100D0F332F5BE
:1009200031503210D8A497EF84F099EF84F09BEF08
:1009300084F0C1EF84F02DA0A0EF84F0A2EF84F04A
:10094000B9EF84F021503124146E2E5022242F242C
:10095000276E2704156E215023243124286E280485
:10096000166E25C517F526C518F52E502F2477ECE1
:1009700087F0D8902D322350315E000E325A90EF1E
:1009800084F022502F26000E30222250050DF35005
:100990002F5CF4503058D8A0D0EF84F0D2EF84F020
:1009A0007AEF84F01200026E000184BFDAEF84F067
:1009B000DCEF84F042EF85F00250050D930EF32436
:1009C000F66EFC0EF420F76EF86A000EF8220800AE
:1009D000F5C484F00250050D010EF326000EF4223A
:1009E000930EF324F66EFC0EF420F76EF86A000EF8
:1009F000F8220800F5C485F00250050D020EF3261A
:100A0000000EF422930EF324F66EFC0EF420F76E23
:100A1000F86A000EF8220800F5500309866F000EF0
:100A20008C6F0250050D030EF326000EF422930E78
:100A3000F324F66EFC0EF420F76EF86A000EF8222E
:100A40000800F5C489F00250050D040EF326000ECF
:100A5000F422930EF324F66EFC0EF420F76EF86A7F
:100A6000000EF82208006100D4F301F5013A0146B6
:100A70000146C8500118BF0B0118C86E848F010EC3
:100A800043EF85F0000E1200076E780EF66EFC0E36
:100A9000F76E000EF86E02D85BEF85F00500FA6E77
:100AA0000900F550FD6E0900F550FE6E0900F55085
:100AB000FF6EFA5012000009D8A461EF85F063EFD1
:100AC00085F067EF85F003680468B3EF85F07B0E6F
:100AD000F66EFC0EF76E000EF86E02D87EEF85F013
:100AE0000500FA6E0900F550FD6E0900F550FE6E26
:100AF0000900F550FF6EFA5007501200076E7B0E8A
:100B0000F66EFC0EF76E000EF86E02D896EF85F0CA
:100B10000500FA6E0900F550FD6E0900F550FE6EF5
:100B20000900F550FF6EFA5003501200036E750E67
:100B3000F66EFC0EF76E000EF86E02D8ADEF85F083
:100B40000500FA6E0900F550FD6E0900F550FE6EC5
:100B50000900F550FF6EFA5012000750056E035061
:100B6000036E05C504F51200000E066E04BEBDEF4F
:100B700085F0BBEF85F0C3EF85F0036C041ED8B0A1
:100B8000042A010E066E02BECAEF85F0C8EF85F09A
:100B9000D0EF85F0016C021ED8B0022A010E061AB1
:100BA000000E086E000E076E03500410D8B4DBEF81
:100BB00085F0DDEF85F005EF86F0010E056EE5EFBF
:100BC00085F0D89003360436052A04AEEAEF85F0A6
:100BD000ECEF85F0E1EF85F0D8900736083603504A
:100BE000015C04500258D8A0F8EF85F0FAEF85F0C8
:100BF000FFEF85F00350015E0450025A0780D89041
:100C000004320332052EECEF85F00650D8B40BEF1A
:100C100086F00DEF86F011EF86F0076C081ED8B055
:100C2000082A07C501F508C502F51200FF0E176E68
:100C3000166866EC8CF0F80E436E000E426E0E0ED7
:100C4000446E190E456E020E466E020E476EA10EE0
:100C5000486EFF0E496E170E4A6E070E086E420E62
:100C6000096E050E0A6E000ED4EC86F00A0E466E72
:100C70000A0E446E0A0E456E000E086E420E096E94
:100C8000050E0A6E010ED4EC86F0000E436E1F0EA8
:100C9000426E550E456E000E086E420E096E050E30
:100CA0000A6E020ED4EC86F0FF0E436EE00E426E2A
:100CB000550E446E000E086E420E096E050E0A6E49
:100CC000030ED4EC86F0040E436E000E426E0A0E44
:100CD000456E000E086E420E096E050E0A6E040E79
:100CE000D4EC86F073EC8CF0010E506E1200000E06
:100CF000C26E000EC16E000EBE6E000EC36E000E00
:100D0000BF6E000EC06E070ECA6ECB683E0EC66E7A
:100D1000FE0EC76EAF0EC86EEF0EC96EEF0E040169
:100D2000186F9F0E106FFE0E086F070E206F286958
:100D30003E0E006F000E196F000E296F000E216F1E
:100D4000000E096F000E016F000E116F000E020100
:100D5000896F000E886F000E876F000E866F000E81
:100D60000401226F000E2A6F000E026F000E0A6F40
:100D7000000E126F000E1A6F03690B6913691B696D
:100D8000070E236F2B6904690C6914691C690F0E27
:100D9000246F2C69160E02016A6F320E156F310E28
:100DA000176F150E6B6F12000F6E200E0F60DBEFCA
:100DB00086F0DDEF86F0E2EF86F00FC50DF50E6AE6
:100DC000E6EF86F0000E0E6E1F0E0D6E0DC50FF5D0
:100DD0001F0E106E02EF87F010500E0D320EF3242E
:100DE000D96E240EF420DA6E10500E0D400EF3244E
:100DF000E16E240EF420E26E0D0EDBC4E3F4E8068F
:100E0000FCE2100610500F5CD8B009EF87F00BEF32
:100E100087F013EF87F01050D8A411EF87F013EF8D
:100E200087F0ECEF86F00F500E0D400EF3240B6EA2
:100E3000240EF4200C6E09C501F50AC502F50BC598
:100E400003F50CC504F5085000EC80F012003E6E6E
:100E5000210E3D602EEF87F030EF87F035EF87F001
:100E60003DC53FF5406A39EF87F0000E406E200E19
:100E70003F6E3FC53DF53EC541F56DEF87F04150F2
:100E80000E0D4D0EF324D96E240EF420DA6EDF50D1
:100E9000D8B44DEF87F04FEF87F06CEF87F04150FB
:100EA0000E0D400EF3243B6E240EF4203C6E415098
:100EB0000E0D410EF324D96E240EF420DA6E02D802
:100EC0006CEF87F00500FA6EDE50FD6EDE50FE6EB0
:100ED000DE50FF6EFA501200412A3D50415CD8A00E
:100EE00074EF87F076EF87F03FEF87F01200206E07
:100EF00015C50CF5205085EC88F016C50CF514507E
:100F000090EC89F020C51EF5ABEF87F014C51FF5F6
:100F100091EF87F017C50CF518C50DF59CEC8BF01B
:100F20001F2A1650196E1A6A010E1926000E1A226F
:100F30001F501B6E1C6A19501B5C1C50800A1D6ED2
:100F40001A50800A1D58D8A0A8EF87F0AAEF87F0A2
:100F50008AEF87F01E2A1550196E1A6A010E19269B
:100F6000000E1A221E501B6E1C6A19501B5C1C506E
:100F7000800A1D6E1A50800A1D58D8A0C2EF87F053
:100F8000C4EF87F086EF87F01200416E415064ECA9
:100F90008BF001C542F502C543F520EE04F0425046
:100FA000D9264350DA22610078F33FF5610074F3EB
:100FB00040F520EE04F04250D9264350DA22610079
:100FC000F4F4DEF46100F8F4DDF442C53BF543C50A
:100FD0003CF520EE01F04250D9264350DA2202D8E7
:100FE000FCEF87F00500FA6EDE50FD6EDE50FE6EFF
:100FF000DE50FF6EFA50120020EE04F04250D92667
:101000004350DA226100FCF4DEF4610000F5DDF407
:10101000120020EE07F03B50D9263C50DA22DF5078
:10102000216E20EE04F03B50D9263C50DA226100BC
:1010300078F322F5610074F323F520EE08F03B50BD
:10104000D9263C50DA22DF50246E20EE09F03B50C6
:10105000D9263C50DA22DF50256E20EE0AF03B50B4
:10106000D9263C50DA22610078F326F5610074F34A
:1010700027F520EE0CF03B50D9263C50DA22DF5009
:10108000286E20EE06F03B50D9263C50DA22DF5085
:10109000C7EC82F0120020EE07F03B50D9263C50FE
:1010A000DA22DF50336E20EE08F03B50D9263C5058
:1010B000DA22DF50346E20EE09F03B50D9263C5046
:1010C000DA22DF50356E20EE0AF03B50D9263C5034
:1010D000DA22610078F336F5610074F337F520EE1B
:1010E00004F03B50D9263C50DA22610078F338F501
:1010F000610074F339F520EE06F03B50D9263C50E0
:10110000DA22DF5028EC89F01200136E600E1360B3
:101110008CEF88F08EEF88F093EF88F013C50DF513
:101120000E6A97EF88F0000E0E6E5F0E0D6E0DC505
:1011300013F5600E0C609FEF88F0A1EF88F0A6EF2A
:1011400088F00CC50FF5106AAAEF88F0000E106E3B
:101150005F0E0F6E0FC50CF51350100F116E0C5073
:10116000100F126E110E086E050E096E020E0A6E39
:10117000150EE1EC83F0120020EE07F03B50D9266B
:101180003C50DA22DF50216E20EE08F03B50D92689
:101190003C50DA22DF50226E20EE09F03B50D92677
:1011A0003C50DA22DF50236E20EE0AF03B50D92665
:1011B0003C50DA22DF50246E20EE04F03B50D9265A
:1011C0003C50DA22610078F325F5610074F326F5CE
:1011D00020EE06F03B50D9263C50DA22DF505DEC81
:1011E00084F0120020EE07F03B50D9263C50DA2262
:1011F000DF50266E20EE09F03B50D9263C50DA2213
:10120000DF50276E20EE0AF03B50D9263C50DA2200
:10121000DF50286E20EE08F03B50D9263C50DA22F1
:10122000DF50296E20EE04F03B50D9263C50DA22E4
:10123000610078F32AF5610074F32BF520EE06F0D7
:101240003B50D9263C50DA22DF505BEC83F0120091
:101250003A6E4AEF89F033C521F534C522F535C51C
:1012600023F56100D8F4F6F46100DCF4F7F4000E25
:10127000F86E08006100D4F324F538C525F539C5AA
:1012800026F53A505DEC84F0364A372A3450050D85
:10129000F3283A266100D8F4F6F46100DCF4F7F4A0
:1012A000000EF86E0800F5500009D8A45AEF89F036
:1012B0005CEF89F02BEF89F012005050D8A463EF57
:1012C00089F065EF89F067EF89F016EC86F0000E83
:1012D00064EC8BF001C54BF502C54CF54DC53DF5F1
:1012E0004EC53EF5000EC5EC87F020EE06F04B50E3
:1012F000D9264C50DA2251500F0FDF6E040E5126C2
:101300005150800A670FD8A088EF89F08AEF89F0E2
:101310008CEF89F0E80E516E000E08EC8BF0120095
:10132000136E600E136097EF89F099EF89F09EEFCE
:1013300089F013C50FF5106AA2EF89F0000E106E48
:101340005F0E0F6E0FC50DF5600E0C60AAEF89F0F1
:10135000ACEF89F0B1EF89F00CC511F5126AB5EF69
:1013600089F0000E126E5F0E116E11C50EF50D0E96
:10137000086E050E096E020E0A6E750EE1EC83F022
:101380001200BE9CBE8EBE90000E026E010E016E5B
:10139000FBEC8BF0BE9E000E026E020E016EBFECE7
:1013A0008AF0BE8EBE8C000E026E010E016EFBEC4A
:1013B0008BF0000EB6EC8BF0000E026EC80E016EC4
:1013C000FBEC8BF05F0E0C6E000E85EC88F05F0E70
:1013D0000C6E000E90EC89F0CFEC8BF0120020EE3A
:1013E00007F03B50D9263C50DA22DF50146E20EE35
:1013F00008F03B50D9263C50DA22DF50156E20EE23
:1014000009F03B50D9263C50DA22DF50166E20EE10
:1014100004F03B50D9263C50DA22610078F317F5EE
:10142000610074F318F520EE06F03B50D9263C50CD
:10143000DA22DF5077EC87F0120020EE07F03B5005
:10144000D9263C50DA22DF50186E20EE08F03B50CF
:10145000D9263C50DA22DF50196E20EE09F03B50BD
:10146000D9263C50DA22DF501A6E20EE04F03B50B1
:10147000D9263C50DA22610078F31BF5610074F341
:101480001CF520EE06F03B50D9263C50DA22DF5006
:1014900018EC82F01200600E0C6E000E85EC88F0E5
:1014A000600E0C6E000E90EC89F0000E146E000EB3
:1014B000156E4DC50CF54EC50DF59CEC8BF0152A3F
:1014C0005F0E156466EF8AF068EF8AF059EF8AF0D4
:1014D000142A5F0E14646FEF8AF071EF8AF057EFF1
:1014E0008AF01200016E5C0E0118D8B47AEF8AF00F
:1014F0007CEF8AF085EF8AF05D0E0118D8A483EFA7
:101500008AF085EF8AF096EF8AF05C0E0118D8B465
:101510008CEF8AF08EEF8AF092EF8AF0020E4F6E17
:1015200098EF8AF0010E4F6E98EF8AF0000E4F6E22
:10153000120020EE07F03B50D9263C50DA22DF5053
:10154000186E20EE08F03B50D9263C50DA22DF50CE
:10155000196E20EE04F03B50D9263C50DA2261008F
:1015600078F31AF5610074F31BF520EE06F03B509A
:10157000D9263C50DA22DF5039EC81F01200C9EF55
:101580008AF000D000D000D000D0200E015E000E06
:10159000025A025007E1200E015CD8B0D2EF8AF067
:1015A000D4EF8AF0C1EF8AF0D6EF8AF00106D8A016
:1015B0000206012806E10228D8A4E1EF8AF0E3EF51
:1015C0008AF0D6EF8AF01200176E600E1760EBEF0C
:1015D0008AF0EDEF8AF007EF8BF05F0E1464F3EF03
:1015E0008AF0F5EF8AF0F7EF8AF007EF8BF05F0EE5
:1015F0000C6E175085EC88F05F0E0C6E145090EC5A
:1016000089F015C50CF516C50DF59CEC8BF0120094
:101610003D6E3D500E0D400EF3243B6E240EF42023
:101620003C6E3D500E0D410EF324D96E240EF42075
:10163000DA6E02D826EF8BF00500FA6EDE50FD6EF2
:10164000DE50FE6EDE50FF6EFA501200120002C530
:1016500006F503C507F538EF8BF0610018F4D9F4EF
:1016600061001CF4DAF4DF5021EC8CF0064A072A02
:101670000406D8A00506042806E10528D8A443EFEF
:101680008BF045EF8BF02DEF8BF0120020EE07F082
:101690003B50D9263C50DA22DF50146E20EE04F085
:1016A0003B50D9263C50DA22610078F315F56100F1
:1016B00074F316F520EE06F03B50D9263C50DA22A2
:1016C000DF50E4EC8AF01200056E210E05606BEF2E
:1016D0008BF06DEF8BF072EF8BF005C503F5046AAC
:1016E00076EF8BF0000E046E200E036E03C505F539
:1016F00005500E0D400EF324016E240EF420026EF0
:101700001200020EF66E190EF76E010EF86E090049
:101710006100D4F351F509EE40F010EEC0F1EE6A2D
:10172000E550E150FCE1E250FAE1506A4F6A4E6A3E
:101730004D6A00016DEF8CF04F04D8B4A2EF8BF02E
:10174000A4EF8BF0A6EF8BF05AEC8CF04F04D8B4DA
:10175000ACEF8BF0AEEF8BF0B0EF8BF0B5EF8BF022
:101760000CC503F50D5044EC85F012000C6E0C50C6
:10177000D8A4BDEF8BF0BFEF8BF0C3EF8BF0AF0EB3
:101780000D6EC5EF8BF0AE0E0D6E000E086E000EE6
:10179000096E000E0A6E0D50E1EC83F01200320E5D
:1017A0000C6E0C0E086E050E096E010E0A6EA00E70
:1017B000E1EC83F0200E0C6E0C0E086E050E096E27
:1017C000010E0A6EA10EE1EC83F01200015003023B
:1017D0006100CCF305F56100D0F306F50150040279
:1017E000F350062602500302F350062605C501F504
:1017F00006C502F5120001EF8CF0530EE82EFED75D
:1018000000F00106D8A00206012806E10228D8A4AB
:101810000CEF8CF00EEF8CF0FDEF8BF01200000E51
:101820000001606F000E616F000E636F000E646F49
:10183000000E656F000E666F000E676F000E686F1A
:101840001200016E010E0001826F610004F481F04C
:10185000B1A02DEF8CF02FEF8CF028EF8CF0000171
:1018600080511200700E0001AD6F000EAF6F000EC0
:10187000B36F020EB16F000EB06F000EAC6F1200AE
:101880000FEC8CF077EC86F032EC8CF04DEC8CF0B9
:10189000C1EC89F05DEC89F01200020E0001846F4A
:1018A000400E856F000E866F000E8C6F000E896FE4
:1018B000C89C1200000E086E000E096E000E0A6E23
:1018C0005C0EE1EC83F0C198BF80120016C54DF5A7
:1018D00017C54EF54BEC8AF0120040EC8CF06FEF20
:1018E0008CF0FEEFFFF0200E3D6E000E27EC87F02F
:1018F0001200000ED3EC84F012000001849F12004D
:031900001200E8EA
:04FFFC0081EF8BF016
:020000040020DA
:10000000FF0FFF0FFF0FFF0FFF0FFF0FFF0FFF0F80
:10001000FF0FFF0FFF0FFF0FFF0FFF0FFF0FFF0F70
:020000040030CA
:0A000000FCFFF7FF9FFFFFFFFFFF6B
:00000001FF
